:020000040800F2
:1000000050070020CD0100083B040008330400081D
:10001000370400087D020008F70E00080000000009
:100020000000000000000000000000006D05000856
:100030000903000800000000E9040008B9070008EF
:10004000E7010008E7010008E7010008E7010008F0
:10005000E7010008E7010008E7010008E7010008E0
:10006000E7010008E7010008E7010008E7010008D0
:10007000E7010008E7010008E7010008E7010008C0
:10008000E7010008E7010008E7010008E7010008B0
:10009000E7010008E7010008E7010008E7010008A0
:1000A000E7010008E7010008E7010008E701000890
:1000B000E7010008E70100081D080008E701000843
:1000C000E7010008E7010008E7010008E701000870
:1000D000E7010008110E0008E7010008E701000829
:1000E000E7010008E7010008E7010008E701000850
:1000F000E7010008E7010008E7010008E701000840
:10010000E7010008E7010008E7010008E70100082F
:10011000E7010008E7010008E7010008E70100081F
:10012000E7010008E7010008E7010008E70100080F
:1001300000F002F800F03AF80AA090E8000C8244BF
:100140008344AAF10107DA4501D100F02FF8AFF29C
:10015000090EBAE80F0013F0010F18BFFB1A43F0A5
:1001600001031847B81B0000D81B0000103A24BF39
:1001700078C878C1FAD8520724BF30C830C144BF0C
:1001800004680C607047000000230024002500264E
:10019000103A28BF78C1FBD8520728BF30C148BFEA
:1001A0000B6070471FB51FBD10B510BD00F033F8D0
:1001B0001146FFF7F7FF00F03DFF00F051F803B4E0
:1001C000FFF7F2FF03BC00F098FE000009488047EB
:1001D00009480047FEE7FEE7FEE7FEE7FEE7FEE729
:1001E000FEE7FEE7FEE7FEE704480549054A064B41
:1001F00070470000BD0700083101000850010020D1
:100200005007002050030020500300207047704723
:10021000704770477047754600F02CF8AE460500F1
:100220006946534620F00700854618B020B5FFF711
:10023000DBFFBDE820404FF000064FF000074FF015
:1002400000084FF0000B21F00701AC46ACE8C009F4
:10025000ACE8C009ACE8C009ACE8C0098D467047FD
:1002600010B50446AFF300802046BDE81040FFF70C
:10027000A6BF000000487047EC00002000BFFEE76A
:100280001FB50121082000F051F90121042000F0E0
:100290002DF903208DF80E0010208DF80F000001BD
:1002A000ADF80C0003A9164800F02FF804208DF8D3
:1002B0000F00C001ADF80C0003A9114800F025F8AB
:1002C000104800F0DDFA40F2E730ADF804004720B6
:1002D000ADF800000020ADF80600ADF80200694658
:1002E000084800F043FD01221146064800F0D0FB0B
:1002F00000F0A4F80021034800F0A7FA1FBD000099
:10030000000C01400008004070472DE9F041024612
:1003100000250026002000230024002791F803C0B8
:100320000CF00F0591F803C00CF0100CBCF1000F9D
:1003300003D091F802C04CEA050591F800C0BCF169
:10034000000F31D0146800202BE04FF0010C0CFAA4
:1003500000F3B1F800C00CEA03069E4220D18300EE
:100360004FF00F0C0CFA03F7BC4305FA03FC4CEA00
:10037000040491F803C0BCF1280F06D14FF0010C22
:100380000CFA00FCC2F814C00AE091F803C0BCF1FA
:10039000480F05D14FF0010C0CFA00FCC2F810C058
:1003A000401C0828D1D31460B1F800C0BCF1FF0F85
:1003B00034DD546800202EE000F1080C4FF00108F5
:1003C00008FA0CF3B1F800C00CEA03069E4221D1F2
:1003D00083004FF00F0C0CFA03F7BC4305FA03FC43
:1003E0004CEA040491F803C0BCF1280F05D100F1D8
:1003F000080C08FA0CF8C2F8148091F803C0BCF19C
:10040000480F07D100F1080C4FF0010808FA0CF86A
:10041000C2F81080401C0828CED35460BDE8F0819B
:100420000246002093680B400BB1012000E0002041
:10043000704700BFFEE700BFFEE7704708B54FF406
:10044000A06000F047F800208DF801008DF8020050
:100450001E208DF8000001208DF80300684600F092
:1004600001F808BD70B5002100230F22C47804B341
:10047000154C246804F4E064C4F5E064210AC1F179
:100480000403CA40447804FA03F1847814402143F9
:1004900009010E4C0678A155047804F01F050124CB
:1004A000AC4005786D11AD0005F1E025C5F80041BF
:1004B00009E0047804F01F050124AC40044D0678DF
:1004C000761145F8264070BD0CED00E000E400E038
:1004D00080E100E002490143024A116070470000D8
:1004E0000000FA050CED00E07047000029B1064A53
:1004F000D2690243044BDA6104E0034AD2698243C1
:10050000014BDA61704700000010024029B1064A31
:1005100012690243044B1A6104E0034A12698243E0
:10052000014B1A61704700000010024029B1064AD1
:1005300092690243044B9A6104E0034A9269824340
:10054000014B9A61704700000010024029B1064A31
:10055000D2680243044BDA6004E0034AD268824363
:10056000014BDA6070470000001002407047000045
:100570002DE9F05F0024A146A34654E048E00120A5
:1005800029490860142000F003FD00202749C1F824
:10059000A00100BF4FF400712548FFF741FF00287C
:1005A000F8D00121234800F050F90BF1010B00BFF6
:1005B0004FF400711E48FFF733FF0128F8D00021E7
:1005C0001C4800F042F91B4800F04EFA82461A49D6
:1005D000096801EB4102C2EBC1110AEBC10001F055
:1005E0000FF907460022154B00F0B2FF054600F058
:1005F0007DFF04464946204601F06AF98146002005
:100600000C49243108800C4908600A2000F09AFC4B
:10061000BBF1050FB3D10A49484601F0C7F90446BA
:100620002046BDE8F09FA9E7A08121420080214239
:10063000000C0140000800402000002000004D4058
:100640000000A04008B501210820FFF76FFF4FF41C
:100650008050ADF8000028208DF8030003208DF8AD
:10066000020069460F48FFF750FE4FF40050ADF806
:10067000000028208DF8030003208DF80200694651
:100680000848FFF742FE4FF48040ADF800002820F4
:100690008DF8030003208DF8020069460148FFF73A
:1006A00034FE08BD000C014010B500F001F810BD8B
:1006B0000CB50020019000903348006840F4803071
:1006C0003149086000BF3048006800F400300090F5
:1006D0000198401C0190009818B90198B0F5A06FDE
:1006E000F1D12948006800F4003010B101200090D9
:1006F00001E0002000900098012843D123480068C1
:1007000040F01000214908600846006820F003000E
:1007100008600846006840F0020008601A48406817
:10072000194948600846406848600846406840F4F7
:10073000806048600846406820F47C1048600846A5
:10074000406840F4E81048600846006840F0807057
:10075000086000BF0C48006800F000700028F9D065
:100760000948406820F0030007494860084640688F
:1007700040F00200486000BF0348406800F00C00F1
:100780000828F9D10CBD00000010024000200240F2
:10079000042808D14FF0E021096941F004014FF02D
:1007A000E022116107E04FF0E021096921F0040126
:1007B0004FF0E022116170477047000010B51348F8
:1007C000006840F00100114908600846406810497F
:1007D00008400E494860084600680E4908400B4929
:1007E00008600846006820F48020086008464068D9
:1007F00020F4FE0048604FF41F008860FFF754FFAC
:100800004FF000600449086010BD00000010024075
:100810000000FFF8FFFFF6FE08ED00E010B5012133
:10082000064800F024F940B10121044800F00AF81C
:1008300003480068401C0249086010BD00080040E1
:1008400020000020CA430282704721B1028842F092
:100850000102028004E002884FF6FE731A40028013
:10086000704731B1B0F8442042F40042A0F844206F
:1008700005E0B0F84420C2F30E02A0F8442070470F
:1008800010B504466848844208D10121C014FFF71E
:100890005DFE0021E014FFF759FEC4E0B4F1804F83
:1008A00008D101210846FFF731FE00210120FFF7A2
:1008B0002DFEB8E05D48844208D101210220FFF7F7
:1008C00025FE00210220FFF721FEACE058488442BB
:1008D00008D101210420FFF719FE00210420FFF7B1
:1008E00015FEA0E05348844208D101210820FFF7FB
:1008F0000DFE00210820FFF709FE94E04E488442D7
:1009000008D101211020FFF701FE00211020FFF780
:10091000FDFD88E04948844208D101212020FFF7ED
:10092000F5FD00212020FFF7F1FD7CE044488442E2
:1009300008D101214014FFF709FE00216014FFF7E0
:1009400005FE70E03F48844209D10121C804FFF749
:10095000FDFD00214FF40020FFF7F8FD63E03A4869
:10096000844209D101210805FFF7F0FD00214FF471
:100970008010FFF7EBFD56E03448844209D1012195
:100980004805FFF7E3FD00214FF40010FFF7DEFDFF
:1009900049E02F48844208D101214020FFF7B6FDED
:1009A00000214020FFF7B2FD3DE02A48844208D1F3
:1009B00001218020FFF7AAFD00218020FFF7A6FD7E
:1009C00031E02548844208D101218015FFF79EFDC2
:1009D0000021A015FFF79AFD25E02048844209D1A7
:1009E00001210804FFF7B2FD00214FF48030FFF72A
:1009F000ADFD18E01A48844209D101214804FFF7EF
:100A0000A5FD00214FF40030FFF7A0FD0BE01548D5
:100A1000844208D101218804FFF798FD00214FF49A
:100A20008020FFF793FD10BD002C01400004004022
:100A300000080040000C004000100040001400407E
:100A400000340140004C014000500140005401407E
:100A500000180040001C0040002000400040014001
:100A600000440140004801400146888C704730B581
:100A70000246002000230024158A05EA0103958917
:100A800005EA010413B10CB1012000E0002030BDE3
:100A90001AB183890B43838102E083898B4383816D
:100AA0007047000070B5002400220023058C4FF62B
:100AB000FE7635400584028C8388048B4FF68F7553
:100AC0002C40B51E2C400D882C43751E2A400D89E4
:100AD0002A434D882A43144DA8420BD0134DA842F7
:100AE00008D0134DA84205D0124DA84202D0124D95
:100AF000A84213D14FF6F7752A404D892A434FF685
:100B0000FB752A408D882A434FF6FF652B404FF630
:100B1000FF552B408D892B43CD892B438380048344
:100B2000CD888586028470BD002C014000340140D0
:100B30000040014000440140004801400A460021B5
:100B4000018B4FF6F7731940114301837047000082
:100B500070B5002400220023058C4FF6EF76354057
:100B60000584028C8388048B48F6FF752C404FF671
:100B7000FF452C400D884FF6FF7606EA05252C43ED
:100B80004FF6DF752A400D8906EA05152A434D8880
:100B900006EA05152A43154DA84202D0144DA84275
:100BA0001DD14FF67F752A404D894FF6FF7606EA34
:100BB00005152A434FF6BF752A408D8806EA0515AC
:100BC0002A434FF6FF352B404FF2FF752B408D899E
:100BD00006EA85052B43CD8906EA85052B438380EC
:100BE0000483CD880587028470BD0000002C01407D
:100BF000003401400A460021018B4FF2FF73194077
:100C00004FF6FF7303EA0223194301837047000084
:100C100070B5002400220023058C4FF6FF66354096
:100C20000584028C8388848B4FF68F752C404FF699
:100C3000FC752C400D882C434FF6FF552A400D893A
:100C40004FF6FF7606EA05252A434D8806EA052574
:100C50002A43154DA84202D0144DA8421DD14FF28F
:100C6000FF752A404D894FF6FF7606EA05252A438F
:100C70004FF6FF352A408D8806EA05252A434EF6B1
:100C8000FF752B404DF6FF752B408D8906EA051543
:100C90002B43CD8906EA05152B4383808483CD88B9
:100CA0008587028470BD0000002C014000340140A3
:100CB0000A460021818B4FF6F77319401143818357
:100CC0007047000070B5002200230024058C4EF60A
:100CD000FF7635400584038C8488828B48F6FF7547
:100CE0002A404FF6FF452A400D884FF6FF7606EA68
:100CF00005252A434DF6FF752B400D8906EA05357B
:100D00002B434D8806EA05352B430B4DA84202D0F4
:100D10000A4DA84208D14BF6FF752C408D894FF63D
:100D2000FF7606EA85152C4384808283CD88A0F85F
:100D30004050038470BD0000002C0140003401408D
:100D40000A460021818B4FF2FF7319404FF6FF7363
:100D500003EA022319438183704781867047018724
:100D6000704781877047A0F84010704700220288C2
:100D70001D4B98420ED01D4B98420BD0B0F1804FC6
:100D800008D01B4B984205D01A4B984202D01A4B00
:100D9000984204D14FF68F731A404B881A43174B71
:100DA000984207D0164B984204D04FF6FF431A40A2
:100DB000CB881A4302808B8883850B8803850A4B76
:100DC00098420BD0094B984208D00E4B984205D060
:100DD0000D4B984202D00D4B984201D10B7A0386FD
:100DE0000123838270470000002C01400034014041
:100DF0000004004000080040000C004000100040CB
:100E000000140040004001400044014000480140FF
:100E100010B540F225511D4800F03EF810B31B48B4
:100E200000F064F8C4B21A48008800F40040C8B961
:100E30001748008800F4804060B10A2C03D00020DD
:100E40001349088020E01248008840F4004010490F
:100E5000088019E00D2C06D10D48008840F4804030
:100E60000B49088010E00A480088C0F30D000949CA
:100E70000C5407480088401C054908800846008833
:100E8000C72801DD0020088010BD000000380140A7
:100E90001C0000202400002070B50246002400231E
:100EA0000025002040F66A16B14200D100BFC1F310
:100EB000421501F01F03012606FA03F3012D02D1AA
:100EC0009689334006E0022D02D1168A334001E0B4
:100ED000968A33400C12012606FA04F41688344030
:100EE00013B10CB1012000E0002070BD01468888DC
:100EF000C0F30800704700BFFEE700BF7047000066
:100F000010B56FF00400FFF743FC0A4800680A4977
:100F1000B0FBF1F0094908700846007800EB400189
:100F2000C1EBC0104FF6FF7101EAC0000449088010
:100F300010BD00000000002000127A001400002004
:100F4000160000200146114A12884A434FF0E02360
:100F50005A6100229A611A46126942F001021A612E
:100F600000BF4FF0E022106900F001021AB100F456
:100F70008032002AF5D04FF0E022126922F00102FF
:100F80004FF0E0231A6100229A617047160000209A
:100F90000146114A12784A434FF0E0235A61002279
:100FA0009A611A46126942F001021A6100BF4FF0BD
:100FB000E022106900F001021AB100F48032002A28
:100FC000F5D04FF0E022126922F001024FF0E02349
:100FD0001A6100229A6170471400002010B54FF486
:100FE000F0710848FFF7B9FE00210648FFF7B7FE89
:100FF0004FF4F0710348FFF7B4FE00210148FFF7FA
:10100000B2FE10BD0034014010B500210848FFF7C2
:10101000A4FE4FF42F710648FFF7A1FE4FF42F7185
:101020000348FFF79EFE00210148FFF79CFE10BD1C
:101030000034014001244FF4A060FFF74BFAFFF7A2
:101040005FFF00F00BF9FFF7FDFA00F09DF9FFF7E5
:1010500017F9FFF78DFAFFF7F1F9F8E098E0B921F9
:101060007B48FFF77AFE4FF480517A48FFF7D8F9B2
:1010700001280DD141037748FFF7D2F940B94FF469
:1010800080417448FFF7CCF9012801D1FFF7A6FF92
:101090004FF480516F48FFF7C3F968B94FF400511E
:1010A0006C48FFF7BDF938B94FF480416948FFF744
:1010B000B7F908B9FFF792FF4FF480516548FFF781
:1010C000AFF9012814D141036248FFF7A9F978B9B3
:1010D0004FF480415F48FFF7A3F948B9FFF77EFF5F
:1010E0009620FFF72FFFFFF78FFFC820FFF72AFF9B
:1010F0004FF480515748FFF793F901280CD1410371
:101100005448FFF78DF9012806D181035148FFF7B4
:1011100087F908B900F094F94FF480514D48FFF772
:101120007FF9B0B94FF400514A48FFF779F980B917
:101130004FF480414748FFF773F9012809D1FFF7C1
:101140004DFF9620FFF7FEFE00F064F9C820FFF780
:10115000F9FE4FF480513F48FFF762F970B94FF440
:1011600000513C48FFF75CF9012807D18103394859
:10117000FFF756F9012801D100F078F9012C07D1C9
:10118000FFF7F6F90546344900F0D2FC00D800E03C
:1011900065E700BF53E000244FF480512D48FFF76E
:1011A0003FF901280BD141032A48FFF739F930B93B
:1011B0004FF480412748FFF733F9012820D000F091
:1011C0006BF9B4212248FFF7C8FDC820FFF7BAFE2B
:1011D000BE211F48FFF7C1FDC820FFF7B3FEB921AC
:1011E0001B48FFF7BAFDFFF70FFF4FF4C870FFF77A
:1011F000A9FE00F051F96420FFF7A4FE00F060F9A9
:101200004FF480511348FFF70BF901280CD04FF42D
:1012100000511048FFF704F930B14FF480410D48F8
:10122000FFF7FEF801280AD100F036F96420FFF735
:1012300089FEFFF7E9FEC820FFF784FE06E0FFF70E
:1012400097F90546044900F073FCA4D900BF05E7EF
:1012500000040040000C01400000C84100B589B006
:1012600001214803FFF762F901211020FFF75EF921
:101270004FF47A70ADF818000020ADF81400ADF806
:101280001600ADF81A0005A93D48FFF76FFD4FF4B1
:101290007070ADF8200003208DF8220018208DF822
:1012A000230008A93748FFF730F87020ADF8040094
:1012B0000120ADF806000020ADF80C004FF461707D
:1012C000ADF80A0001A92E48FFF7ECFB08212C48D5
:1012D000FFF734FC01212A48FFF7C3FA7020ADF86C
:1012E00004000120ADF806000020ADF80C004FF41A
:1012F0006170ADF80A0001A92148FFF729FC082117
:101300001F48FFF777FC01211D48FFF7AAFA70205C
:10131000ADF804000120ADF806000020ADF80C0087
:101320004FF46170ADF80A0001A91548FFF770FC91
:1013300008211348FFF7BCFC01211148FFF791FA7F
:101340007020ADF804000120ADF806000020ADF8D3
:101350000C004FF46170ADF80A0001A90848FFF7CE
:10136000B1FC08210648FFF7EBFC01210448FFF718
:1013700078FA01210248FFF768FA09B000BD0000C1
:10138000003401400010014000B589B00121042063
:10139000FFF7CCF801210220FFF7A8F80121084649
:1013A000FFF7C4F84020ADF8200003208DF822009C
:1013B00018208DF8230008A91448FEF7A6FFC720BF
:1013C000ADF8180041F61F40ADF814000020ADF84C
:1013D0001A00ADF8160005A90D48FFF7C7FC6020FC
:1013E000ADF804000120ADF806000220ADF80C00B5
:1013F00001A90748FFF756FB08210548FFF79EFBA8
:1014000001210348FFF721FA09B000BD000801409F
:101410000004004010B54FF42F710848FFF79DFC01
:1014200000210648FFF79BFC00210448FFF799FCC8
:101430004FF42F710148FFF796FC10BD00340140B6
:1014400010B500210848FFF788FC40F22621064825
:10145000FFF785FC40F226210348FFF782FC0021BC
:101460000148FFF780FC10BD0034014010B540F288
:1014700026210848FFF771FC00210648FFF76FFCA2
:1014800000210448FFF76DFC40F226210148FFF7D8
:101490006AFC10BD0034014010B500210748FFF779
:1014A0005CFC00210548FFF75AFC00210348FFF7C8
:1014B00058FC00210148FFF756FC10BD00340140E4
:1014C00010B540F252310848FFF747FC00210648AA
:1014D000FFF745FC4FF4C8710348FFF742FC0021B9
:1014E0000148FFF740FC10BD0034014021F00042EC
:1014F000A2F16052B2F5801F01F0004328BFD2F183
:101500007F6C0BD95FEA001C43EAC20242EB5070C9
:1015100018BF704728BF20F001007047B2F5801F48
:10152000BCBF184670474FEA410C1CF5001F02D2A1
:10153000084600F077BB70B500F075F9000000892F
:10154000FFF7F6BF4FF00040A0F5800070470000A5
:101550002DE9C04130B4DFF8A0C23CEA111418BF35
:101560003CEA131400F0EC8081EA03051CEA111434
:1015700044EAD57418BF1CEA131500F0C780A4EB29
:1015800005044FF0004545EAC12145EAC32341EA7D
:10159000505143EA525304F17F74994204F50034E8
:1015A0004FEAC0204FEAC22208BF904200F09C8060
:1015B0004FEA13650FF24016765D4FEA134506FBBE
:1015C00005F7C7F1807706FB07F74FEAD737A7FB88
:1015D00003687642C8F58038A7FB06CE38BFA8F16D
:1015E000010807FB08E64FF0000EA6FB028CE6FBA5
:1015F00003CEDCF1000CCEF1004E38BFAEF1010E8F
:10160000A6FB0C584FF000074FF00005E6FB0E87D5
:10161000A1FB08C6A0FB07CE16EB0E0645F10005A0
:10162000E1FB076515F1E04E7EBFA4F580345FEA6B
:1016300046066D4116F1800745F100054FEA172770
:101640004FEA066647EA0567A6F1DE46B6F1805F17
:101650004FEA15251FD9384624F0010C05EBC4715B
:10166000BCF1FE6F01EB0C1102D8F0BCBDE80081AB
:1016700024425CBF01F5801E9EEAC47F02D4F0BC08
:10168000BDE80081244238D4F0BCA1F1C041BDE8DE
:10169000004100F016B94FEAD22242EA43524FEA23
:1016A000D323A7FB02864FEAD02040EA415007FB34
:1016B00003661EEA0E0F4FEAD12105FB026658BFF2
:1016C000A6EB0056B6EB00564FEA520E4EEAC37E2A
:1016D00018EB0E0E56EB530EBDD518EB02085E410B
:1016E0007F1C55F10005B6E74FF480154FF0000759
:1016F0004FF000064FF00008ADE7F0BC4FF00000DF
:1017000001F1C04101F00041BDE8008111EA0C1F68
:101710000CEA131500D00CE013EA0C1F00F0258032
:101720004FF00000F0BC81EA030101F00041BDE888
:101730000081F0BCBDE8004181EA030100F0C1B8BE
:10174000F0BCBDE8004170B500F06DF8097EFC3ECC
:1017500000F007B881EA03014FF0000001F00041FA
:10176000704781EA030100F0ACB8F0BCBDE800416D
:101770004FF0000021497047FFFDFBF9F7F5F4F247
:10178000F0EEEDEBE9E8E6E4E3E1E0DEDDDBDAD81C
:10179000D7D5D4D3D1D0CFCDCCCBCAC8C7C6C5C47A
:1017A000C2C1C0BFBEBDBCBBBAB9B8B7B6B5B4B391
:1017B000B2B1B0AFAEADACABAAA9A8A8A7A6A5A47C
:1017C000A3A3A2A1A09F9F9E9D9C9C9B9A99999840
:1017D0009797969595949393929191908F8F8E8EE3
:1017E0008D8C8C8B8B8A8989888887878685858470
:1017F00084838382828181800000FF070000F87F5C
:10180000B0FA80F310FA03F10AD0C3F11D0303F517
:1018100080634FEA41504FEA035202EBD1217047F7
:101820004FF0000070470EF1020E2EF0030E5EF82E
:10183000046B364205D4012A43EB030515F5001F5E
:1018400012D8012841EB010C1CF5001F0CD80ED159
:101850004FEAD17C15F5001F0CEB4C0C0CF1020C7F
:1018600008BF4CEBD37C04E04FF0080C01E04FEADA
:10187000D37C0CEB4C0526FA05F606F00706B6F10C
:10188000040C06D20EEB860CBDE870404CF0010C47
:101890006047DFE80CF0090B02024FF000414FF007
:1018A0000000A1F5002170BD19461046012851EB3A
:1018B000010418BFD4F5001484BF002001F00041DA
:1018C00070BD0808A0F500114FEA31017047000013
:1018D00090EA010F48BF81F0004100F1B081421A47
:1018E0003CBF801A89184FEAD0524FF07F4C1CEA57
:1018F000410FA2EBD15318BF9CEA026F00F03B806E
:101900004FF0004C4CEA00204CEA012121FA03FC84
:1019100010EB0C0C1ED202F1FF325FEA1C2040EBF0
:10192000C25038BF70471CF07F0F4FEA400C18BF01
:10193000BCF17F4F38BF7047C3F12003994008BF07
:1019400020F00100BCF17F4F38BF7047A0F1C040CC
:1019500000F068B94FEA3C00000A40EBC25028BFD3
:101960001CF0FF0F4FEA400CE6D018BFBCF17F4FD0
:1019700038BF7047EAE79CEA026F05D010EA5C0FB7
:1019800008BF00F00040704710B500F005F900BF37
:1019900064FBBE3E401058BFC0F14040491058BFE4
:1019A000C1F140418142EFF3008070474FF47F0C5A
:1019B0001CEAD0121EBF1CEAD11392EA0C0F93EA64
:1019C0000C0F00F0858090EA010F48BF42F480724E
:1019D00040F4000C41F400002CF07F4120F07F40E7
:1019E00000B58142A2EB03020FF2081CACEB504E93
:1019F000C0F100009EF800E04FEA4E0E00FB0EFC26
:101A000038BF49004FEA2C1C02F5FA020CFB0EF31A
:101A10004FEACE1E4FEA112C4FEAC1210EEB635E56
:101A200042EB22420EFB0CFC4FEA1C5300FB03115D
:101A30004FEA112C4FEA01310EFB0CFC4FEADC4C53
:101A400000FB0C11C14228BF09184CEB03335DF8B1
:101A500004EB10EB410143EBC250B2F57C0F38BFF1
:101A6000704729D512F0F00F1CBF00F1C04000F004
:101A700000407047008182838485868788898B8CAB
:101A80008D8E8F919293959697999A9C9D9FA0A2E7
:101A9000A3A5A7A8AAACAEB0B2B3B5B7B9BCBEC037
:101AA000C2C5C7C9CCCED1D4D7D9DCDFE2E6E9ECD8
:101AB000F0F3F7FAFE0000004FEA400C0CF1807CD6
:101AC000BCF17E4F28BF7047B0F1C04000F0AAB80B
:101AD00090EA010F0CEAD11348BF42F480726245CC
:101AE00038BF634507D213F47F0F16D080EA010098
:101AF00000F00040704710B500F04EF8097EFC3E43
:101B000000F005B880EA010000F00040704780EA6C
:101B1000010000F0004000F085B812F47F0F04BF10
:101B20000248704780EA010000F07CB80000C07FE6
:101B300050EA010C00F113801CF5000F58BFBCF5F2
:101B4000000F01D48842704707D710F5000F58BF27
:101B500011F5000F15D488427047894270471CF573
:101B6000000F04D5BCF5000FF7D5814270474FF048
:101B7000807C1CEB400F38BF1CEB410F01D281422F
:101B8000704710B500F008F8922449004FF000505B
:101B90004FF08051FFF7FEBE0EF1020E2EF0030E45
:101BA0005EF8044B244204D44FEA4102B2F17F4F65
:101BB00011D84FEA4003B3F17F4F0CD80ED14FEA52
:101BC000D07CB2F17F4F0CEB4C0C0CF1020C08BF37
:101BD0004CEBD17C04E04FF0080C01E04FEAD17CE3
:101BE0000CEB4C0324FA03F404F00704B4F1040CE6
:101BF00006D20EEB840CBDE810404CF0010C60479F
:101C0000DFE80CF0070802024FF00040A0F580006A
:101C100010BD0846420018BFD2F1807288BF00F0A4
:101C2000004010BDFF2141EAD050C00570470000C0
:101C300090EA010F48BF81F000413FF550AE421AD3
:101C400004D882F00042A0EB020011444FEAD052C7
:101C50004FF07F4C1CEA410FA2EBD15318BF9CEA16
:101C6000026F4AD04FF0004C4CEA00204CEA0121B0
:101C700021FA03FCB0EB0C0C0FD412F0FE0F36D09F
:101C80005FEA4C001DD5001240EBC25038BF7047D0
:101C90001CF03F0F18BF70470BE0A2F101025FEA92
:101CA0001C2040EBC25038BF70471CF07F0F18BF9C
:101CB0007047C3F12003994014BF401E20F001007B
:101CC000704780084FEA122308BF7047B0FA80FCC3
:101CD000A2EB0C02CCF1280C60FA0CF093EA122F64
:101CE00004BF00EBC25070474FEAC3707047130A3D
:101CF0005FEADC1008BF7047F6E79CEA026F04D089
:101D000010EA5C0F08BF0020704710B5FFF744FFD2
:101D100040DFF63E81F00040704700003C1D0008A7
:101D200000000020240000006C010008601D000875
:101D3000240000202C0700008801000800A24A04AB
:101D4000000000000000000001020304060708096B
:101D50000000000000000000000000000000000083
:0400000508000131BD
:00000001FF
